:100000000C9446000C9465000C9465000C946500FB
:100010000C9465000C9465000C9465000C946500CC
:100020000C9471000C9465000C9465000C946500B0
:100030000C9465000C9465000C9465000C946700AA
:100040000C9465000C9465000C9465000C9465009C
:100050000C9465000C9465000C9465000C9465008C
:100060000C9465000C9465000C9465000C9465007C
:100070000C9465000C9465000C9465000C9465006C
:100080000C9465000C9465000C94650011241FBE4F
:10009000CFEFD0E1DEBFCDBF16E0A0E0B1E0EAE6F1
:1000A000F5E200E00BBF02C007900D92A236B10747
:1000B000D9F716E0A2E6B6E001C01D92AD36B10751
:1000C000E1F70E9408030C94B3120C9400001F92F5
:1000D0000F920FB60F9211240F900FBE0F901F902A
:1000E00018951F920F920FB60F9211240F900FBE0A
:1000F0000F901F90189581EB87BB88BB80E884BB6D
:1001000080E681BB82BB80EC8093620008950895F5
:1001100008950895AF9A80EA9FE00197F1F7089556
:1001200080E091E00E94AD0E83E091E00E94AD0E70
:1001300082E491E00E94AD0E88E791E00E94AD0E4E
:1001400088EB91E00E94AD0E88EF91E00E94AD0E29
:100150008DE092E00E94AD0E83E392E00E94AD0E2E
:1001600088E592E00E94AD0E0895982F80538A3062
:1001700008F40895892F90E00E94400E9C0181565A
:100180009040069710F08FEF0895822F87550895BD
:100190002F923F924F925F926F927F928F929F9297
:1001A000AF92BF92CF92DF92EF92FF920F931F9385
:1001B000DF93CF93CDB7DEB7C051D2400FB6F894DE
:1001C000DEBF0FBECDBF88E992E00E94AD0E00D029
:1001D0008AE992E0ADB7BEB712969C938E931197C1
:1001E0000E94940E2224332421010F900F9021C0ED
:1001F000812F0E949003812F90E00E94350E892B61
:1002000009F416C1220C331C441C551C220C331C4F
:10021000441C551C220C331C441C551C220C331C42
:10022000441C551C812F0E94B500280E311C411C16
:10023000511C0E948C03182F8D30D1F600D0ECECAD
:10024000F2E0ADB7BEB71296FC93EE9311970E9401
:10025000940E0F900F9091E1C92ED12CCC0EDD1E83
:100260004E010894811C911C88EF682E82E0782E44
:10027000C201B101A6010E946C0400D000D000D0E0
:10028000EFECF2E0ADB7BEB71296FC93EE93119788
:1002900013962D923D924D925C9216970E94940E69
:1002A0007601AA24BB24EDB7FEB736960FB6F894B4
:1002B000FEBF0FBEEDBF00D000D0EFEEF2E0ADB755
:1002C000BEB71296FC93EE9311971496BC92AE9221
:1002D00013970E94940E10E00F900F900F900F90C4
:1002E000D7018D917D01F401E10FF11D808300D0D4
:1002F00000D0EDB7FEB73196ADB7BEB712967C927F
:100300006E921197828313820E94940E0F900F9029
:100310000F900F90173009F47EC01F5F103100F36B
:1003200000D0E1E0F3E0ADB7BEB71296FC93EE93D8
:1003300011970E94940E84010F900F9008C0892F8E
:100340000E9490030F5F1F4F0C151D0571F0D8011F
:100350009C91892F80528F3590F380E60E94900304
:100360000F5F1F4F0C151D0591F700D08CEC92E02C
:10037000EDB7FEB7928381830E94940EA0E1B0E0B6
:10038000AA0EBB1E0F900F90B0E0AB16B2E0BB06FA
:1003900009F091CF00D086E093E0EDB7FEB79283ED
:1003A00081830E94940E0F900F900E948C03182F4F
:1003B0000E9490031D3029F40894211C311C411C1B
:1003C000511C88E992E00E94AD0E812F90E00E94BE
:1003D000400E8137910509F04BCF8AE090E00E94F2
:1003E000A60EC05FDD4F0FB6F894DEBF0FBECDBFC7
:1003F000CF91DF911F910F91FF90EF90DF90CF9001
:10040000BF90AF909F908F907F906F905F904F9034
:100410003F902F90089500D08EEF92E0EDB7FEB799
:10042000928381830E94940E18E00F900F9058CF12
:1004300000D089EB92E0EDB7FEB7928381830E94F2
:10044000940E0F900F90CDCF8F929F92AF92BF924C
:10045000CF92DF92EF92FF920F931F93DF93CF9390
:10046000CDB7DEB769970FB6F894DEBF0FBECDBF2C
:10047000CE0101960E948C05882309F0AFC083E36A
:1004800093E00E94AD0E00D085E793E0ADB7BEB714
:1004900012969C938E9311970E94940E00D0EDB704
:1004A000FEB7319680EA93E0ADB7BEB712969C9343
:1004B0008E9311978981828313820E94940E8BEC14
:1004C00093E0EDB7FEB792838183CE0102969483C9
:1004D00083830E94940E84EF93E0ADB7BEB712966B
:1004E0009C938E931197CE01059614969C938E93B0
:1004F00013970E94940EEDB7FEB731968DE194E00C
:10050000ADB7BEB712969C938E9311978B8582835D
:1005100013820E94940E00D086E494E0EDB7FEB7FB
:10052000928381838C859D85AE85BF8583839483EB
:10053000A583B6830E94940EEDB7FEB7319680E78F
:1005400094E0ADB7BEB712969C938E9311978889AD
:1005500090E08053984F93838283898984831582A6
:100560000E94940E8DB69EB60894811C911C8EE953
:1005700094E0EDB7FEB7928381832A893B894C8949
:100580005D896E897F89888D998DA0E4AA2EF2E419
:10059000BF2EEFE0CE2EDD24EE24FF2400E010E09D
:1005A0000E944807C901BA01D40112962C931297F0
:1005B00013969C93139714964C93149715967C93CB
:1005C0000E94940EEDB7FEB736960FB6F894FEBFB4
:1005D0000FBEEDBF88E592E00E94AD0E69960FB6A2
:1005E000F894DEBF0FBECDBFCF91DF911F910F9169
:1005F000FF90EF90DF90CF90BF90AF909F908F9043
:1006000008950E947B000E9469030E947C03089564
:100610001F9380E993E06CE873E00E94480E0E940B
:100620000103AF9A80EA9FE00197F1F706993FC076
:100630000E94B304882361F000D088EF94E0EDB706
:10064000FEB7928381830E94940E0F900F90FFCF8C
:100650000E9490008CE395E00E9494030E948C031A
:10066000182F0E949003812F992787FD90950E9453
:10067000400E8836910561F3893691053CF40D975B
:1006800089F080E495E00E949403E4CF89369105D7
:1006900031F08D369105A9F70E94C800DBCF0E948A
:1006A0002402D8CF80E091E00E949403D3CF8BEC5A
:1006B00094E00E94AD0E0699FECF80E090E020E429
:1006C0003CE9F9013197F1F7019684319105C9F7B9
:1006D000AFCFC19A87B3866087BBBB9880E58DB9E1
:1006E00081E08EB90895BB9A80E48DB908958FB9E1
:1006F000779BFECF8FB1089586E08093950010928E
:10070000900080E189B988E18AB9599A08958BB13E
:10071000881F8827881F08955F9BFECF8CB108959E
:100720005D9BFECF8CB90895FC018081882339F050
:100730005D9BFECF8CB9818131968823C9F70895DE
:10074000982F92959F708F709A3058F05D9BFECFD6
:10075000995C9CB98A3058F45D9BFECF805D8CB962
:1007600008955D9BFECF905D9CB98A30A8F35D9B98
:10077000FECF895C8CB908950F931F938C01812F54
:10078000992787FD9A950E94A003802F0E94A003BD
:100790001F910F910895DF92EF92FF920F931F9395
:1007A000D82E7A018B0180640E947703812F9927CC
:1007B000AA27BB270E947703C801AA27BB270E944C
:1007C0007703BB27A12F902F8F2D0E9477038E2DAB
:1007D0000E947703DD20E9F485E90E94770310E0A9
:1007E0008FEF0E9477038F3F61F01F910F91FF9071
:1007F000EF90DF9008951F5F8FEF0E9477038F3F88
:10080000A1F71930C1F71F910F91FF90EF90DF9082
:10081000089588E0D81629F08FEF0E94770310E042
:10082000EBCF87E80E94770310E0E6CFCF92DF920C
:10083000EF92FF920F931F93CF93DF936B017C0195
:100840008A01C0988091620682FD07C039E0CC0C15
:10085000DD1CEE1CFF1C3A95D1F788E1B701A6011B
:100860000E94CB03882361F0C09A982F892FDF91D3
:10087000CF911F910F91FF90EF90DF90CF9008954F
:100880008FEF0E9477038EEF0E947703C0E0D0E0E5
:10089000F80181918F010E9477032196F2E0C03028
:1008A000DF07B1F78FEF0E9477038FEF0E94770386
:1008B0008FEF0E947703982F8F71853011F0C09AC7
:1008C000D5CF8FEF0E9477038823D9F3C09A8FEF9B
:1008D0000E94770390E0CACFCF92DF92EF92FF920F
:1008E0000F931F93CF93DF936B017C018A01C09814
:1008F0008091620682FD07C049E0CC0CDD1CEE1C35
:10090000FF1C4A95D1F781E1B701A6010E94CB03F4
:10091000F82E882331F58FEF0E9477038E3FD9F7A9
:10092000C0E0D0E08FEF0E947703F80181938F0140
:100930002196F2E0C030DF07A9F78FEF0E9477031E
:100940008FEF0E947703C09A8FEF0E9477038F2D5D
:10095000DF91CF911F910F91FF90EF90DF90CF909B
:100960000895C09AF4CF0F931F93B89AC09A10E0DD
:100970008FEF0E9477031F5F1A30D1F70DB1802FE0
:1009800083608DB9C09880E040E050E060E070E0A6
:100990000E94CB03813071F011E080E040E050E034
:1009A00060E070E00E94CB031F5F163109F49DC028
:1009B000813099F71092620688E04AEA51E060E0DF
:1009C00070E00E94CB0382FD43C08FEF0E9477034B
:1009D0008FEF0E9477038FEF0E9477038FEF0E94C3
:1009E00077038A3A09F090C0809162068260809312
:1009F000620610E019C087E340E050E060E070E07C
:100A00000E94CB038091620681FD38C040E050E037
:100A100060E070E089E20E94CB03153199F080FF1D
:100A200032C01F5F8091620690E083709070892BC6
:100A300011F781E040E050E060E070E00E94CB03FD
:100A4000153169F7C09A0DB98CEF1F910F91089578
:100A500087E340E050E060E070E00E94CB0389E271
:100A600040E050E060E070E00E94CB0382FD43C0B4
:100A700080916206816080936206BBCF40E050E0C7
:100A800060E070E4C7CF8091620681FF17C08AE3FF
:100A900040E050E060E070E00E94CB038823C1F5A5
:100AA0008FEF0E94770386FD29C08FEF0E947703A6
:100AB0008FEF0E9477038FEF0E9477038BE340E074
:100AC00050E060E070E00E94CB0380E140E052E043
:100AD00060E070E00E94CB03C09A0DB98FEF0E94D6
:100AE000770380E01F910F910895C09A0DB98FEFA1
:100AF0001F910F910895809162067BCF80916206CD
:100B0000846080936206D1CFC09A0DB98DEFEACF91
:100B1000C09A0DB98BEFE6CF7F928F929F92AF92E2
:100B2000BF92CF92DF92EF92FF920F931F93DF93CA
:100B3000CF93CDB7DEB760970FB6F894DEBF0FBE88
:100B4000CDBF4C0189E1F40111928A95E9F7C09873
:100B50008AE040E050E060E070E00E94CB03782E35
:100B6000882309F0BEC08FEF0E9477038E3FD9F72C
:100B70006E010894C11CD11C8601B1E1EB2EF12C51
:100B8000EC0EFD1E8FEF0E947703F80181938F0119
:100B9000EE15FF05B9F78FEF0E9477038FEF0E94E4
:100BA00077038981F40180838A819B819283818389
:100BB000D4011496FE01349685E001900D92815087
:100BC000E1F78985F40180832A8530E040E050E038
:100BD000522F4427332722278B8590E0A0E0B0E0F6
:100BE000DC0199278827282B392B4A2B5B2B8D85F5
:100BF00090E0A0E0B0E0282B392B4A2B5B2B8C85B2
:100C000090E0A0E0B0E0BA2FA92F982F8827282BDA
:100C1000392B4A2B5B2B23873487458756878E8554
:100C20008295807F9F85292F22952F70822B878721
:100C30009F70908B89E040E050E060E070E00E949F
:100C4000CB03782E882309F04CC08FEF0E947703E6
:100C50008E3FD9F78FEF0E947703F60181936F01E2
:100C6000E017F107B9F78FEF0E9477038FEF0E942B
:100C700077038091620682FF4AC0888590E0A0E0F9
:100C8000B0E08F739070A070B070AC013327222752
:100C9000998580E0AA2797FDA095BA2F282B392B9C
:100CA0004A2B5B2B8A8590E0A0E0B0E0282B392B03
:100CB0004A2B5B2B2F5F3F4F4F4F5F4F59016A010C
:100CC000A60160E070E080E090E003E10E94C906C8
:100CD000F401218B328B438B548B658B768B878B06
:100CE000908FC09A872D60960FB6F894DEBF0FBE26
:100CF000CDBFCF91DF911F910F91FF90EF90DF90CB
:100D0000CF90BF90AF909F908F907F90089529854E
:100D1000229526952695237030E0E885F0E0EE0FC9
:100D2000FF1FEE0FFF1F2E2B3F2BEF81F0E0E37034
:100D3000F070FE2FEE27FF0FFF0F2E2B3F2B4427C7
:100D400037FD4095542F2F5F3F4F4F4F5F4FAE8180
:100D5000AF70B0E01296EA85F0E0E370F070EE0F4D
:100D6000FF1F1B85111F1127111F1E2BA10FB11D66
:100D700004C0220F331F441F551FAA95D2F7F40158
:100D8000218B328B438B548B158A168A178A108ECF
:100D9000A8CFEF92FF920F93DF93CF93CDB7DEB73B
:100DA00060970FB6F894DEBF0FBECDBFA82F00230B
:100DB00009F461C07E010894E11CF11C88E0F70190
:100DC00011928A95E9F729833A834B835C836D837B
:100DD0007E83AF83988780E2801BE82FFF27E7FDA3
:100DE000F09549815A816B817C81181684F01986AF
:100DF0001A861B861C86882799278E1B9F0B04C08A
:100E0000440F551F661F771F8A95D2F728C0202FE1
:100E1000332727FD3095DB01CA01022E04C0880F5D
:100E2000991FAA1FBB1F0A94D2F789879A87AB879D
:100E3000BC8704C07695679557954795EA95D2F794
:100E40008D819E81AF81B88504C0880F991FAA1F2C
:100E5000BB1F2A95D2F7482B592B6A2B7B2B4D872A
:100E60005E876F87788B29853A854B855C856D8594
:100E70007E85AF8598898A2F60960FB6F894DEBF7D
:100E80000FBECDBFCF91DF910F91FF90EF900895EE
:100E9000AEE5B0E0EEE4F7E00C94FE0DA8E04E0104
:100EA0000894811C911CF4016A2E11926A94E9F74E
:100EB00029833A834B835C836D837E838F839887FA
:100EC000CE010996FC011192AA95E9F7A986BA8686
:100ED000CB86DC86ED86FE860F87188B29843A84C4
:100EE0004B845C84ED84FE840F85188969807A8048
:100EF0008B809C806DA67EA68FA698AA6D807E8032
:100F00008F809884E114F1040105110509F0B3C341
:100F1000621473048404950408F03DC100E02016B7
:100F200000E0300601E0400600E0500688F41FEFC4
:100F3000211631044104510439F030F048E0E42E28
:100F4000F12C012D112D18C0EE24FF24870114C0AF
:100F500020E0221620E0320620E0420621E0520680
:100F600030F038E1E32EF12C012D112D05C020E1E8
:100F7000E22EF12C012D112DD201C1010E2C04C045
:100F8000B695A795979587950A94D2F7845A9A4F64
:100F9000DC012C9180E290E0A0E0B0E08E199F0986
:100FA000A00BB10B7C018D01E21AF10801091109B6
:100FB000E114F10401051105A1F10E2C04C0220C6D
:100FC000331C441C551C0A94D2F7A40193010E2C27
:100FD00004C0220F331F441F551F0A94D2F780E22A
:100FE00090E08E199F096DA47EA48FA498A804C0D8
:100FF00096948794779467948A95D2F7622A732A95
:10100000842A952AADA4BEA4CFA4D8A804C0AA0C53
:10101000BB1CCC1CDD1CEA94D2F7ADA6BEA6CFA6A5
:10102000D8AA6201EE24FF24CDAADEAAEFAAF8AE68
:10103000920181012070307009AF1AAF2BAF3CAF25
:10104000C401B301A70196010E94DC0D7B018C0154
:10105000C401B3012DA93EA94FA958AD0E94DC0DD2
:10106000C901DA013C014D01C401B30129AD3AAD1A
:101070004BAD5CAD0E94BD0D9B01AC018701FF240F
:10108000EE24ADA4BEA4CFA4D8A8C601AA27BB272E
:1010900057016801A82AB92ACA2ADB2AA216B30670
:1010A000C406D506E0F40894610871088108910827
:1010B000A20CB31CC41CD51CA214B304C404D504D4
:1010C00070F0A216B306C406D50648F40894610869
:1010D000710881089108A20CB31CC41CD51CA21A6B
:1010E000B30AC40AD50AC601B5012DA93EA94FA964
:1010F00058AD0E94DC0D7B018C01C601B5012DA904
:101100003EA94FA958AD0E94DC0DC901DA015C016E
:101110006D01C601B50129AD3AAD4BAD5CAD0E9484
:10112000BD0D9B01AC018701FF24EE248DA59EA57A
:10113000AFA5B8A9A070B070E82AF92A0A2B1B2B1A
:10114000E216F30604071507C0F40894A108B108D5
:10115000C108D108E20CF31C041D151DE214F304B0
:101160000405150550F0E216F3060407150728F4E8
:101170000894A108B108C108D108D301992788278C
:1011800086017501E82AF92A0A2B1B2BE9AAFAAA7B
:101190000BAB1CABCFC4211431044104510471F4D6
:1011A00061E070E080E090E020E030E040E050E07E
:1011B0000E94DC0DC901DA011C012D0100E020169E
:1011C00000E0300601E0400600E0500688F41FEF22
:1011D000211631044104510431F028F048E050E078
:1011E00060E070E017C040E050E060E070E012C0E6
:1011F00020E0221620E0320620E0420621E05206DE
:1012000028F048E150E060E070E004C040E150E0C8
:1012100060E070E0D201C101042E04C0B695A7952C
:10122000979587950A94D2F7845A9A4FDC012C91AE
:10123000E0E2EE2EF12C012D112DD801C701841B07
:10124000950BA60BB70B821B9109A109B109009759
:10125000A105B10561F464015301A218B308C408E3
:10126000D50831E0632E712C812C912C1EC16F9614
:101270008FAF6F97082E04C0220C331C441C551CE2
:101280000A94D2F7EE2DE81B640153010E2E04C020
:10129000D694C794B794A7940A94D2F7A401930163
:1012A0006F960FAC6F9704C0220F331F441F551F5A
:1012B0000A94D2F76DA47EA48FA498A80E2E04C021
:1012C00096948794779467940A94D2F78401730173
:1012D000E22AF32A042B152BE9A6FAA60BA71CA7D2
:1012E0003201882499249201810120703070219666
:1012F0000CAF1DAF2EAF3FAF2197C601B501A401C2
:1013000093010E94DC0D7B018C01C601B501A40193
:1013100093010E94DC0DC901DA0125968CAF9DAFC7
:10132000AEAFBFAF2597BC01CD0121962CAD3DAD31
:101330004EAD5FAD21970E94BD0D9B01AC018701B1
:10134000FF24EE24A9A4BAA4CBA4DCA4C601AA2736
:10135000BB275C016D01AE28BF28C02AD12AA21686
:10136000B306C406D50660F525966CAD7DAD8EAD91
:101370009FAD2597615070408040904025966CAF9E
:101380007DAF8EAF9FAF2597A20CB31CC41CD51C9C
:10139000A214B304C404D50498F0A216B306C4067C
:1013A000D50670F4615070408040904025966CAF37
:1013B0007DAF8EAF9FAF2597A20CB31CC41CD51C6C
:1013C000A21AB30AC40AD50AC601B501A401930141
:1013D0000E94DC0D7B018C01C601B501A4019301C3
:1013E0000E94DC0DC901DA013C014D01C401B301C9
:1013F00021962CAD3DAD4EAD5FAD21970E94BD0D48
:101400009B01AC018701FF24EE2489A59AA5ABA519
:10141000BCA5A070B07057016801A82AB92ACA2AD1
:10142000DB2AA216B306C406D506E0F408946108C8
:10143000710881089108A20CB31CC41CD51CA2140D
:10144000B304C404D50470F0A216B306C406D506CE
:1014500048F408946108710881089108A20CB31C33
:10146000C41CD51C8DA59EA5AFA5B8A96F960FACC1
:101470006F9704C0880F991FAA1FBB1F0A94D2F749
:101480008DA79EA7AFA7B8ABA21AB30AC40AD50A04
:101490002596ECACFDAC0EAD1FAD2597D701992775
:1014A0008827682A792A8A2A9B2A820122273327B9
:1014B00029960CAF1DAF2EAF3FAF2997A201910126
:1014C000407050702D962CAF3DAF4EAF5FAF2D9753
:1014D000C601B50129962CAD3DAD4EAD5FAD299746
:1014E0000E94DC0D7B018C01C601B50129962CAD53
:1014F0003DAD4EAD5FAD29970E94DC0DC901DA010B
:1015000061968CAF9DAFAEAFBFAF6197BC01CD010F
:101510002D962CAD3DAD4EAD5FAD2D970E94BD0D0E
:101520009B01AC018701FF24EE24ADA4BEA4CFA48F
:10153000D8A8C601AA27BB2757016801A82AB92A3B
:10154000CA2ADB2AA216B306C406D50660F5619640
:101550006CAD7DAD8EAD9FAD6197615070408040A8
:10156000904061966CAF7DAF8EAF9FAF6197A20C3C
:10157000B31CC41CD51CA214B304C404D50498F035
:10158000A216B306C406D50670F4615070408040C0
:10159000904061966CAF7DAF8EAF9FAF6197A20C0C
:1015A000B31CC41CD51CA21AB30AC40AD50AC601AE
:1015B000B50129962CAD3DAD4EAD5FAD29970E948A
:1015C000DC0D7B018C01C601B50129962CAD3DAD2A
:1015D0004EAD5FAD29970E94DC0DC901DA015C01B7
:1015E0006D01C601B5012D962CAD3DAD4EAD5FAD83
:1015F0002D970E94BD0D9B01AC018701FF24EE24B5
:101600008DA59EA5AFA5B8A9A070B070E82AF92A4B
:101610000A2B1B2BE216F30604071507C0F40894E7
:10162000A108B108C108D108E20CF31C041D151D66
:10163000E214F3040405150550F0E216F30604075E
:10164000150728F40894A108B108C108D1086196CB
:10165000ECACFDAC0EAD1FAD6197D7019927882783
:1016600096018501082B192B2A2B3B2B09AB1AABB2
:101670002BAB3CAB62C26E147F048006910608F46B
:1016800051C220E0E21620E0F20621E0020720E04D
:10169000120788F43FEFE316F1040105110531F05C
:1016A00028F048E050E060E070E017C040E050E013
:1016B00060E070E012C040E0E41640E0F40640E074
:1016C000040741E0140728F048E150E060E070E0D2
:1016D00004C040E150E060E070E0D801C701042E92
:1016E00004C0B695A795979587950A94D2F7845A22
:1016F0009A4FDC012C9130E2A32EB12CC12CD12CBD
:10170000D601C501841B950BA60BB70B821B910953
:10171000A109B1090097A105B10589F4E614F70400
:101720000805190508F4F2C16DA47EA48FA498A839
:10173000621473048404950408F0E8C1F3C16E9642
:101740008FAF6E97082E04C0EE0CFF1C001F111FF8
:101750000A94D2F76A2D681BD201C101062E04C07B
:10176000B695A795979587950A94D2F75C016D0178
:10177000AE28BF28C02AD12AADA2BEA2CFA2D8A629
:10178000720161016E960FAC6E9704C0CC0CDD1C2B
:10179000EE1CFF1C0A94D2F7C9A2DAA2EBA2FCA2AB
:1017A00064015301062E04C0D694C794B794A7943D
:1017B0000A94D2F7D401C3016E960FAC6E9704C0A1
:1017C000880F991FAA1FBB1F0A94D2F7EDA4FEA48D
:1017D0000FA518A904C016950795F794E7946A9584
:1017E000D2F737014801682A792A8A2A9B2A6D8E06
:1017F0007E8E8F8E98A2EDA0FEA00FA118A53801B5
:1018000088249924980187012070307065960CAF68
:101810001DAF2EAF3FAF6597C601B501A40193017F
:101820000E94DC0D7B018C01C601B501A40193016E
:101830000E94DC0DC901DA011C012D01C201B101B8
:1018400065962CAD3DAD4EAD5FAD65970E94BD0D6B
:101850009B01AC018701FF24EE24AD8CBE8CCF8CA4
:10186000D8A0C601AA27BB2757016801A82AB92A10
:10187000CA2ADB2AA216B306C406D50600F50894C8
:101880002108310841085108EDA0FEA00FA118A5BC
:10189000AE0CBF1CC01ED11EAE14BF04C006D106C4
:1018A00070F0A216B306C406D50648F408942108C1
:1018B000310841085108AE0CBF1CC01ED11EA21A2F
:1018C000B30AC40AD50AC601B501A40193010E9456
:1018D000DC0D7B018C01C601B501A40193010E94BE
:1018E000DC0DC901DA013C014D01C401B30165966B
:1018F0002CAD3DAD4EAD5FAD65970E94BD0D9B011A
:10190000AC018701FF24EE248D8D9E8DAF8DB8A193
:10191000A070B07057016801A82AB92ACA2ADB2A28
:10192000A216B306C406D50600F50894610871082E
:10193000810891086DA17EA18FA198A5A60EB71E62
:10194000C81ED91EA616B706C806D90670F0A2167C
:10195000B306C406D50648F40894610871088108E6
:101960009108A60EB71EC81ED91ED601C501821B3E
:10197000930BA40BB50B898F9A8FAB8FBC8FD101C2
:101980009927882764015301A82AB92ACA2ADB2A81
:10199000A9AABAAACBAADCAA860175012FEF3FEF4C
:1019A00040E050E0E222F32204231523A60166273B
:1019B00077276D964CAF5DAF6EAF7FAF6D97A9A0E7
:1019C000BAA0CBA0DCA06FEF7FEF80E090E0A62272
:1019D000B722C822D92289A19AA1ABA1BCA11D011D
:1019E00044245524C801B701A60195010E94BD0DEC
:1019F00069966CAF7DAF8EAF9FAF6997C801B70195
:101A0000A20191010E94BD0D3B014C016D966CAD90
:101A10007DAD8EAD9FAD6D97A60195010E94BD0D68
:101A20007B018C016D966CAD7DAD8EAD9FAD6D97DC
:101A3000A20191010E94BD0D5B016C01A8019701FB
:101A4000260D371D481D591D69966CAC7DAC8EACBA
:101A50009FAC6997C401AA27BB27280F391F4A1FCB
:101A60005B1F2E153F054007510748F4E12CF12C70
:101A700061E0062F112DAE0CBF1CC01ED11ECA0185
:101A8000AA27BB27BC01CD016A0D7B1D8C1D9D1DA6
:101A9000698C7A8C8B8C9C8C6616770688069906E6
:101AA00040F1661577058805990509F043C0D9010D
:101AB0009927882769962CAD3DAD4EAD5FAD6997EE
:101AC00040705070820F931FA41FB51F2DA53EA517
:101AD0004FA558A96E960FAC6E9704C0220F331F06
:101AE000441F551F0A94D2F7281739074A075B0786
:101AF00008F509A91AA92BA93CA9015010402040BA
:101B0000304009AB1AAB2BAB3CAB14C06624772436
:101B1000430121E030E040E050E029AB3AAB4BAB71
:101B20005CAB0BC066247724430119AA1AAA1BAA2E
:101B30001CAA03C0662477244301FE01719688E045
:101B4000DF011D928A95E9F7A9A8BAA8CBA8DCA85D
:101B5000A98ABA8ACB8ADC8A6D8A7E8A8F8A988E15
:101B600029A93A894B895C89662D7E898F89988D50
:101B7000C25ADF4FE2E10C941A0E629FD001739FAC
:101B8000F001829FE00DF11D649FE00DF11D929F19
:101B9000F00D839FF00D749FF00D659FF00D992758
:101BA000729FB00DE11DF91F639FB00DE11DF91F7C
:101BB000BD01CF0111240895A1E21A2EAA1BBB1B5F
:101BC000FD010DC0AA1FBB1FEE1FFF1FA217B30709
:101BD000E407F50720F0A21BB30BE40BF50B661F1F
:101BE000771F881F991F1A9469F7609570958095E3
:101BF00090959B01AC01BD01CF0108952F923F92BA
:101C00004F925F926F927F928F929F92AF92BF920C
:101C1000CF92DF92EF92FF920F931F93CF93DF93B8
:101C2000CDB7DEB7CA1BDB0B0FB6F894DEBF0FBE15
:101C3000CDBF09942A88398848885F846E847D8462
:101C40008C849B84AA84B984C884DF80EE80FD8064
:101C50000C811B81AA81B981CE0FD11D0FB6F894DA
:101C6000DEBF0FBECDBFED0108959111D2C38053E9
:101C70008A5028F0865C806281568650B8F70895B5
:101C80009111089581548A5108F4805E855A08950F
:101C90000F931F93CF93DF938C01EB01009731F4E7
:101CA0006115710519F420E030E038C081E090E062
:101CB0006EE070E00E94E810FC019C01009771F159
:101CC00080E88383209771F0D387C28781E883837C
:101CD0008091630690916406892B21F4F093640649
:101CE000E093630601151105C9F011870087838110
:101CF000826083838091650690916606892B71F4DA
:101D0000F0936606E09365068091670690916806F9
:101D1000892B21F4F0936806E0936706C901DF91EF
:101D2000CF911F910F910895DF93CF93CDB7DEB779
:101D3000FE013596619171918091650690916606DC
:101D4000AF010E94E20ECF91DF9108956091650688
:101D5000709166060E94291208950F931F93CF93E6
:101D6000DF938C01E0916506F0916606838181FF27
:101D700021C0C0E0D0E00DC0E0916506F09166069C
:101D800020853185BF01F9010995892B11F0CFEF2D
:101D9000DFEFF80181918F01882371F7E0916506EB
:101DA000F0916606208531858AE0BF01F901099529
:101DB000892B11F0CFEFDFEFCE01DF91CF911F9193
:101DC0000F9108952F923F924F925F926F927F9260
:101DD0008F929F92AF92BF92CF92DF92EF92FF923B
:101DE0000F931F93DF93CF93CDB7DEB72B970FB62B
:101DF000F894DEBF0FBECDBF3C012B015A01FC01A0
:101E000017821682838181FD03C06FEF7FEFC6C109
:101E10009AE0892E1E010894211C311CF3012381B4
:101E2000F20123FD859123FF81912F01882309F47D
:101E3000B2C1853239F423FD859123FF81912F01B1
:101E4000853229F490E0B3010E942912E7CF982F40
:101E5000FF24EE249924FFE1FF15D0F09B3269F0B6
:101E60009C3228F4903259F0933291F40EC09D3296
:101E700049F0903369F441E024C052E0F52A84E04F
:101E8000F82A28C098E0F92A25C0E0E1FE2A22C0FD
:101E9000F7FC29C0892F80538A3070F4F6FE05C004
:101EA000989C902C1124980E15C0E89CE02C1124CD
:101EB000E80EF0E2FF2A0EC09E3229F4F6FC6BC158
:101EC00040E4F42A07C09C3619F450E8F52A02C011
:101ED000983649F4F20123FD959123FF91912F014A
:101EE000992309F0B8CF892F8554833018F0805298
:101EF000833038F444E050E0A40EB51E5FE359830C
:101F00000FC0933631F0933779F0933509F056C00E
:101F100020C0F5018081898342E050E0A40EB51E07
:101F2000610101E010E012C0F501C080D180F6FC33
:101F300003C06FEF7FEF02C0692D70E042E050E018
:101F4000A40EB51EC6010E941E128C015FE7F52289
:101F500014C0F501C080D180F6FC03C06FEF7FEFA5
:101F600002C0692D70E042E050E0A40EB51EC6012B
:101F70000E940C128C0150E8F52AF3FE07C01AC02B
:101F800080E290E0B3010E942912EA948E2D90E045
:101F900008171907A8F30EC0F601F7FC8591F7FEA4
:101FA00081916F0190E0B3010E942912E110EA943F
:101FB000015010400115110579F7EAC0943611F06F
:101FC000993669F5F7FE08C0F5012081318142811B
:101FD000538184E090E00AC0F501808191819C01E9
:101FE000442737FD4095542F82E090E0A80EB91E9B
:101FF0009FE6F92257FF09C05095409530952195ED
:102000003F4F4F4F5F4FE0E8FE2ACA01B901A101DF
:102010002AE030E00E945512D82ED21840C09537E1
:1020200029F41F2D1F7E2AE030E01DC01F2D197FCF
:102030009F3661F0903720F4983509F0ACC00FC09E
:10204000903739F0983709F0A6C004C028E030E096
:102050000AC0106114FD146020E130E004C014FDDA
:10206000166020E132E017FF08C0F5016081718140
:102070008281938144E050E008C0F5018081918124
:10208000BC0180E090E042E050E0A40EB51EA1014A
:102090000E945512D82ED2188FE7F82EF122F6FEA4
:1020A0000BC05EEFF522D91438F4F4FE07C0F2FC41
:1020B00005C08FEEF82202C01D2D01C0192DF4FEBF
:1020C0000DC0FE01ED0DF11D8081803319F499EEF4
:1020D000F92208C01F5FF2FE05C003C08F2D86786D
:1020E00009F01F5F0F2DF3FC14C0F0FE0FC01E158A
:1020F00010F09D2C0BC09D2C9E0C911A1E2D06C01D
:1021000080E290E0B3010E9429121F5F1E15C0F308
:1021100004C01E1510F4E11A01C0EE2404FF0FC024
:1021200080E390E0B3010E94291202FF1DC001FD6F
:1021300003C088E790E00EC088E590E00BC0802FD8
:10214000867891F001FF02C08BE201C080E2F7FCCB
:102150008DE290E0B3010E94291206C080E390E076
:10216000B3010E9429129A94D914C0F3DA94F101B0
:10217000ED0DF11D808190E0B3010E942912DD2058
:10218000A9F706C080E290E0B3010E942912EA9408
:10219000EE20C1F743CEF30166817781CB012B9608
:1021A0000FB6F894DEBF0FBECDBFCF91DF911F9168
:1021B0000F91FF90EF90DF90CF90BF90AF909F90E6
:1021C0008F907F906F905F904F903F902F900895E9
:1021D0000F931F93CF93DF93689F8001699F100D2A
:1021E000789F100D1124C8010E940411EC01009782
:1021F00029F060E070E0A8010E941712CE01DF9183
:10220000CF911F910F910895CF93DF93BC0182303E
:10221000910510F462E070E0A0916B06B0916C063D
:10222000ED01E0E0F0E040E050E021C088819981DC
:102230008617970769F48A819B81309719F09383F9
:10224000828304C090936C0680936B06FE0134C0B9
:102250006817790738F44115510519F08417950767
:1022600008F4AC01FE018A819B819C01E901209761
:10227000E9F641155105A9F1CA01861B970B049790
:1022800008F4BA01E0E0F0E02AC08D919C9111972A
:1022900084179507F9F46417750781F412968D91E8
:1022A0009C911397309719F09383828304C0909385
:1022B0006C0680936B06FD0132964FC0CA01861BE7
:1022C000970BFD01E80FF91F6193719302978D93AE
:1022D0009C9343C0FD01828193819C01D901109799
:1022E000A1F68091690690916A06892B41F480914C
:1022F0005E0690915F0690936A068093690640910E
:102300006006509161064115510541F44DB75EB725
:1023100080915C0690915D06481B590B20916906DF
:1023200030916A0624173507B0F4CA01821B930B5B
:102330008617970780F0AB014E5F5F4F84179507B4
:1023400050F0420F531F50936A0640936906F901FB
:102350006193719302C0E0E0F0E0CF01DF91CF9193
:102360000895CF93DF93009709F450C0EC012297B2
:102370001B821A82A0916B06B0916C06109709F12E
:1023800040E050E0AC17BD0708F1BB83AA83FE0113
:1023900021913191E20FF31FAE17BF0779F48D91B0
:1023A0009C911197280F391F2E5F3F4F3983288347
:1023B00012968D919C9113979B838A8341155105A9
:1023C00071F4D0936C06C0936B0620C012968D9169
:1023D0009C911397AD01009711F0DC01D3CFFA0166
:1023E000D383C28321913191E20FF31FCE17DF0710
:1023F00069F488819981280F391F2E5F3F4FFA01B8
:10240000318320838A819B8193838283DF91CF9163
:102410000895992788270895FC0105906150704020
:102420000110D8F7809590958E0F9F1F0895DC01BD
:1024300001C06D9341505040E0F70895FC01615098
:10244000704001900110D8F7809590958E0F9F1FD6
:1024500008950F931F93CF93DF938C01EB018B8132
:1024600081FF1BC082FF0DC02E813F818C819D8129
:102470002817390764F4E881F9810193F983E88327
:1024800006C0E885F985802F0995892B31F48E8166
:102490009F8101969F838E8302C00FEF1FEFC801BB
:1024A000DF91CF911F910F910895FA01AA2728304B
:1024B00051F1203181F1E8946F936E7F6E5F7F4F11
:1024C0008F4F9F4FAF4FB1E03ED0B4E03CD0670F8D
:1024D000781F891F9A1FA11D680F791F8A1F911DE0
:1024E000A11D6A0F711D811D911DA11D20D009F430
:1024F00068943F912AE0269F11243019305D319372
:10250000DEF6CF010895462F4770405D4193B3E05A
:102510000FD0C9F7F6CF462F4F70405D4A3318F001
:10252000495D31FD4052419302D0A9F7EACFB4E0B2
:10253000A6959795879577956795BA95C9F700976A
:102540006105710508959B01AC010A2E069457950B
:10255000479537952795BA95C9F7620F731F841F62
:0A256000951FA01D0895F894FFCF09
:10256A000D0A002A3D3D3D3D3D3D3D3D3D3D3D3D44
:10257A003D3D3D3D3D3D3D3D3D3D3D3D3D3D3D3D81
:10258A003D3D3D3D3D3D3D3D3D3D3D3D3D3D3D3D71
:10259A003D3D3D3D3D3D3D3D3D3D3D3D3D3D3D2A74
:1025AA000D00202020202020202020202020202054
:1025BA002020202053442F5344484320436172640F
:1025CA0065722052656164657220202020202020D7
:1025DA002020202020200D00202020204261756428
:1025EA0020526174653A203131353230302C20382E
:1025FA00204461746120426974732C203120537421
:10260A006F70204269742C204E6F20506172697479
:10261A007920202020200D0020202020202020208A
:10262A0020446570742E206F662045452C204B612E
:10263A006E676E756E67204E6174696F6E616C208D
:10264A00556E69766572736974792020202020207E
:10265A0020202020200D0A002020202020202020B9
:10266A0020205B485D3A2068656C700D00202020B0
:10267A00202020202020205B495D3A2073686F7754
:10268A00206469736B20696E666F726D6174696F1D
:10269A006E0D00202020202020202020205B4D5D70
:1026AA003A2073686F77206D656D6F727920636F5A
:1026BA006E74656E74730D002A3D3D3D3D3D3D3D92
:1026CA003D3D3D3D3D3D3D3D3D3D3D3D3D3D3D3D30
:1026DA003D3D3D3D3D3D3D3D3D3D3D3D3D3D3D3D20
:1026EA003D3D3D3D3D3D3D3D3D3D3D3D3D3D3D3D10
:1026FA003D3D3D3D2A0D0A000D000D0A20456E7430
:10270A00657220736563746F72206E756D6265728F
:10271A002028484558293A2000200A0D2057726F70
:10272A006E67206E756D6265720A0D000A0D000AE9
:10273A000D20536563746F72206E756D6265722029
:10274A0028484558293A202530346C580A0D00206B
:10275A0025303458203A20002530325820002D20C8
:10276A000020202020000A0D20456E746572205238
:10277A00455455524E20746F20636F6E74696E759E
:10278A0065206F722027712720746F2073746F7011
:10279A003A20000A0D0A2A3D3D3D3D3D3D3D3D3D65
:1027AA003D3D3D3D3D3D3D3D3D3D3D3D3D3D3D3D4F
:1027BA003D3D3D3D3D3D3D3D3D3D3D3D3D3D3D3D3F
:1027CA003D3D3D3D3D3D3D3D3D3D3D3D3D3D3D3D2F
:1027DA003D3D2A0D002020202020202020202020DE
:1027EA0020202020204D454D4F525920434152442C
:1027FA0020494E464F524D415449494F4E0A0D0009
:10280A00202020202020202020202020204D616E02
:10281A00756661637475726572204944202848455B
:10282A0058293A20253033580A0D0020202020202C
:10283A0020202020202020204F454D2049442020C0
:10284A00202020202020202020202020203A20255F
:10285A00730A0D0020202020202020202020202064
:10286A002050726F64756374206E616D652020203C
:10287A002020202020203A2025730A0D0020202025
:10288A00202020202020202020205265766973698C
:10289A006F6E202848455829202020202020203AE1
:1028AA002025780A0D00202020202020202020200A
:1028BA0020202053657269616C206E756D626572A5
:1028CA0020202020202020203A20256C750A0D0087
:1028DA00202020202020202020202020204D616E32
:1028EA00756661637475726564206461746520201D
:1028FA0020203A2025642F253032640A0D0020203A
:10290A00202020202020202020202053697A6520A2
:10291A0020202020202020202020202020202020AD
:10292A003A20256C75204D420A0D003E3E0A0D20C4
:10293A0053442F534448432043415244204E4F545A
:10294A0020464F554E442E20494E5345525420415D
:10295A0020434152442E0D003E3E0A0D2053442F7F
:10296A0053444843204D454D4F5259204341524408
:10297A0020494E495449414C495A4154494F4E20E5
:10298A004641494C555245212052455345542054FD
:10299A00484520424F4152442E0A0D003E3E200037
:1029AA000D0A204572726F723A20556E6B6E6F7700
:1029BA006E20636F6D6D616E640D0A000001020284
:1029CA0003030303040404040404040405050505BD
:1029DA000505050505050505050505050606060699
:1029EA00060606060606060606060606060606067D
:1029FA000606060606060606060606060707070769
:102A0A00070707070707070707070707070707074C
:102A1A00070707070707070707070707070707073C
:102A2A00070707070707070707070707070707072C
:102A3A000707070707070707070707070808080818
:102A4A0008080808080808080808080808080808FC
:102A5A0008080808080808080808080808080808EC
:102A6A0008080808080808080808080808080808DC
:102A7A0008080808080808080808080808080808CC
:102A8A0008080808080808080808080808080808BC
:102A9A0008080808080808080808080808080808AC
:102AAA00080808080808080808080808080808089C
:102ABA0008080808080808080808080820006D0619
:022ACA0000000A
:00000001FF
